{
	"data": {
		"bytecode": {
			"linkReferences": {},
			"object": "60806040526040518060400160405280600681526020017f48656c6c6f200000000000000000000000000000000000000000000000000000815250600190816200004a919062000311565b503480156200005857600080fd5b5060405162000df238038062000df283398181016040528101906200007e91906200055c565b80600090816200008f919062000311565b5050620005ad565b600081519050919050565b7f4e487b7100000000000000000000000000000000000000000000000000000000600052604160045260246000fd5b7f4e487b7100000000000000000000000000000000000000000000000000000000600052602260045260246000fd5b600060028204905060018216806200011957607f821691505b6020821081036200012f576200012e620000d1565b5b50919050565b60008190508160005260206000209050919050565b60006020601f8301049050919050565b600082821b905092915050565b600060088302620001997fffffffffffffffffffffffffffffffffffffffffffffffffffffffffffffffff826200015a565b620001a586836200015a565b95508019841693508086168417925050509392505050565b6000819050919050565b6000819050919050565b6000620001f2620001ec620001e684620001bd565b620001c7565b620001bd565b9050919050565b6000819050919050565b6200020e83620001d1565b620002266200021d82620001f9565b84845462000167565b825550505050565b600090565b6200023d6200022e565b6200024a81848462000203565b505050565b5b8181101562000272576200026660008262000233565b60018101905062000250565b5050565b601f821115620002c1576200028b8162000135565b62000296846200014a565b81016020851015620002a6578190505b620002be620002b5856200014a565b8301826200024f565b50505b505050565b600082821c905092915050565b6000620002e660001984600802620002c6565b1980831691505092915050565b6000620003018383620002d3565b9150826002028217905092915050565b6200031c8262000097565b67ffffffffffffffff811115620003385762000337620000a2565b5b62000344825462000100565b6200035182828562000276565b600060209050601f83116001811462000389576000841562000374578287015190505b620003808582620002f3565b865550620003f0565b601f198416620003998662000135565b60005b82811015620003c3578489015182556001820191506020850194506020810190506200039c565b86831015620003e35784890151620003df601f891682620002d3565b8355505b6001600288020188555050505b505050505050565b6000604051905090565b600080fd5b600080fd5b600080fd5b600080fd5b6000601f19601f8301169050919050565b620004328262000416565b810181811067ffffffffffffffff82111715620004545762000453620000a2565b5b80604052505050565b600062000469620003f8565b905062000477828262000427565b919050565b600067ffffffffffffffff8211156200049a5762000499620000a2565b5b620004a58262000416565b9050602081019050919050565b60005b83811015620004d2578082015181840152602081019050620004b5565b60008484015250505050565b6000620004f5620004ef846200047c565b6200045d565b90508281526020810184848401111562000514576200051362000411565b5b62000521848285620004b2565b509392505050565b600082601f8301126200054157620005406200040c565b5b815162000553848260208601620004de565b91505092915050565b60006020828403121562000575576200057462000402565b5b600082015167ffffffffffffffff81111562000596576200059562000407565b5b620005a48482850162000529565b91505092915050565b61083580620005bd6000396000f3fe608060405234801561001057600080fd5b506004361061004c5760003560e01c806306fdde0314610051578063213686071461006f578063c47f00271461008d578063fe50cc72146100a9575b600080fd5b6100596100c7565b60405161006691906102b1565b60405180910390f35b610077610155565b60405161008491906102b1565b60405180910390f35b6100a760048036038101906100a2919061041c565b6101e3565b005b6100b16101f6565b6040516100be91906102b1565b60405180910390f35b600080546100d490610494565b80601f016020809104026020016040519081016040528092919081815260200182805461010090610494565b801561014d5780601f106101225761010080835404028352916020019161014d565b820191906000526020600020905b81548152906001019060200180831161013057829003601f168201915b505050505081565b6001805461016290610494565b80601f016020809104026020016040519081016040528092919081815260200182805461018e90610494565b80156101db5780601f106101b0576101008083540402835291602001916101db565b820191906000526020600020905b8154815290600101906020018083116101be57829003601f168201915b505050505081565b80600090816101f2919061067b565b5050565b60606001600060405160200161020d9291906107db565b604051602081830303815290604052905090565b600081519050919050565b600082825260208201905092915050565b60005b8381101561025b578082015181840152602081019050610240565b60008484015250505050565b6000601f19601f8301169050919050565b600061028382610221565b61028d818561022c565b935061029d81856020860161023d565b6102a681610267565b840191505092915050565b600060208201905081810360008301526102cb8184610278565b905092915050565b6000604051905090565b600080fd5b600080fd5b600080fd5b600080fd5b7f4e487b7100000000000000000000000000000000000000000000000000000000600052604160045260246000fd5b61032982610267565b810181811067ffffffffffffffff82111715610348576103476102f1565b5b80604052505050565b600061035b6102d3565b90506103678282610320565b919050565b600067ffffffffffffffff821115610387576103866102f1565b5b61039082610267565b9050602081019050919050565b82818337600083830152505050565b60006103bf6103ba8461036c565b610351565b9050828152602081018484840111156103db576103da6102ec565b5b6103e684828561039d565b509392505050565b600082601f830112610403576104026102e7565b5b81356104138482602086016103ac565b91505092915050565b600060208284031215610432576104316102dd565b5b600082013567ffffffffffffffff8111156104505761044f6102e2565b5b61045c848285016103ee565b91505092915050565b7f4e487b7100000000000000000000000000000000000000000000000000000000600052602260045260246000fd5b600060028204905060018216806104ac57607f821691505b6020821081036104bf576104be610465565b5b50919050565b60008190508160005260206000209050919050565b60006020601f8301049050919050565b600082821b905092915050565b6000600883026105277fffffffffffffffffffffffffffffffffffffffffffffffffffffffffffffffff826104ea565b61053186836104ea565b95508019841693508086168417925050509392505050565b6000819050919050565b6000819050919050565b600061057861057361056e84610549565b610553565b610549565b9050919050565b6000819050919050565b6105928361055d565b6105a661059e8261057f565b8484546104f7565b825550505050565b600090565b6105bb6105ae565b6105c6818484610589565b505050565b5b818110156105ea576105df6000826105b3565b6001810190506105cc565b5050565b601f82111561062f57610600816104c5565b610609846104da565b81016020851015610618578190505b61062c610624856104da565b8301826105cb565b50505b505050565b600082821c905092915050565b600061065260001984600802610634565b1980831691505092915050565b600061066b8383610641565b9150826002028217905092915050565b61068482610221565b67ffffffffffffffff81111561069d5761069c6102f1565b5b6106a78254610494565b6106b28282856105ee565b600060209050601f8311600181146106e557600084156106d3578287015190505b6106dd858261065f565b865550610745565b601f1984166106f3866104c5565b60005b8281101561071b578489015182556001820191506020850194506020810190506106f6565b868310156107385784890151610734601f891682610641565b8355505b6001600288020188555050505b505050505050565b600081905092915050565b6000815461076581610494565b61076f818661074d565b9450600182166000811461078a576001811461079f576107d2565b60ff19831686528115158202860193506107d2565b6107a8856104c5565b60005b838110156107ca578154818901526001820191506020810190506107ab565b838801955050505b50505092915050565b60006107e78285610758565b91506107f38284610758565b9150819050939250505056fea2646970667358221220bc2087dd9381d1a42ace9a9d72996ab91973bff89bf22906d3bab1480b4c981364736f6c63430008110033",
			"opcodes": "PUSH1 0x80 PUSH1 0x40 MSTORE PUSH1 0x40 MLOAD DUP1 PUSH1 0x40 ADD PUSH1 0x40 MSTORE DUP1 PUSH1 0x6 DUP2 MSTORE PUSH1 0x20 ADD PUSH32 0x48656C6C6F200000000000000000000000000000000000000000000000000000 DUP2 MSTORE POP PUSH1 0x1 SWAP1 DUP2 PUSH3 0x4A SWAP2 SWAP1 PUSH3 0x311 JUMP JUMPDEST POP CALLVALUE DUP1 ISZERO PUSH3 0x58 JUMPI PUSH1 0x0 DUP1 REVERT JUMPDEST POP PUSH1 0x40 MLOAD PUSH3 0xDF2 CODESIZE SUB DUP1 PUSH3 0xDF2 DUP4 CODECOPY DUP2 DUP2 ADD PUSH1 0x40 MSTORE DUP2 ADD SWAP1 PUSH3 0x7E SWAP2 SWAP1 PUSH3 0x55C JUMP JUMPDEST DUP1 PUSH1 0x0 SWAP1 DUP2 PUSH3 0x8F SWAP2 SWAP1 PUSH3 0x311 JUMP JUMPDEST POP POP PUSH3 0x5AD JUMP JUMPDEST PUSH1 0x0 DUP2 MLOAD SWAP1 POP SWAP2 SWAP1 POP JUMP JUMPDEST PUSH32 0x4E487B7100000000000000000000000000000000000000000000000000000000 PUSH1 0x0 MSTORE PUSH1 0x41 PUSH1 0x4 MSTORE PUSH1 0x24 PUSH1 0x0 REVERT JUMPDEST PUSH32 0x4E487B7100000000000000000000000000000000000000000000000000000000 PUSH1 0x0 MSTORE PUSH1 0x22 PUSH1 0x4 MSTORE PUSH1 0x24 PUSH1 0x0 REVERT JUMPDEST PUSH1 0x0 PUSH1 0x2 DUP3 DIV SWAP1 POP PUSH1 0x1 DUP3 AND DUP1 PUSH3 0x119 JUMPI PUSH1 0x7F DUP3 AND SWAP2 POP JUMPDEST PUSH1 0x20 DUP3 LT DUP2 SUB PUSH3 0x12F JUMPI PUSH3 0x12E PUSH3 0xD1 JUMP JUMPDEST JUMPDEST POP SWAP2 SWAP1 POP JUMP JUMPDEST PUSH1 0x0 DUP2 SWAP1 POP DUP2 PUSH1 0x0 MSTORE PUSH1 0x20 PUSH1 0x0 KECCAK256 SWAP1 POP SWAP2 SWAP1 POP JUMP JUMPDEST PUSH1 0x0 PUSH1 0x20 PUSH1 0x1F DUP4 ADD DIV SWAP1 POP SWAP2 SWAP1 POP JUMP JUMPDEST PUSH1 0x0 DUP3 DUP3 SHL SWAP1 POP SWAP3 SWAP2 POP POP JUMP JUMPDEST PUSH1 0x0 PUSH1 0x8 DUP4 MUL PUSH3 0x199 PUSH32 0xFFFFFFFFFFFFFFFFFFFFFFFFFFFFFFFFFFFFFFFFFFFFFFFFFFFFFFFFFFFFFFFF DUP3 PUSH3 0x15A JUMP JUMPDEST PUSH3 0x1A5 DUP7 DUP4 PUSH3 0x15A JUMP JUMPDEST SWAP6 POP DUP1 NOT DUP5 AND SWAP4 POP DUP1 DUP7 AND DUP5 OR SWAP3 POP POP POP SWAP4 SWAP3 POP POP POP JUMP JUMPDEST PUSH1 0x0 DUP2 SWAP1 POP SWAP2 SWAP1 POP JUMP JUMPDEST PUSH1 0x0 DUP2 SWAP1 POP SWAP2 SWAP1 POP JUMP JUMPDEST PUSH1 0x0 PUSH3 0x1F2 PUSH3 0x1EC PUSH3 0x1E6 DUP5 PUSH3 0x1BD JUMP JUMPDEST PUSH3 0x1C7 JUMP JUMPDEST PUSH3 0x1BD JUMP JUMPDEST SWAP1 POP SWAP2 SWAP1 POP JUMP JUMPDEST PUSH1 0x0 DUP2 SWAP1 POP SWAP2 SWAP1 POP JUMP JUMPDEST PUSH3 0x20E DUP4 PUSH3 0x1D1 JUMP JUMPDEST PUSH3 0x226 PUSH3 0x21D DUP3 PUSH3 0x1F9 JUMP JUMPDEST DUP5 DUP5 SLOAD PUSH3 0x167 JUMP JUMPDEST DUP3 SSTORE POP POP POP POP JUMP JUMPDEST PUSH1 0x0 SWAP1 JUMP JUMPDEST PUSH3 0x23D PUSH3 0x22E JUMP JUMPDEST PUSH3 0x24A DUP2 DUP5 DUP5 PUSH3 0x203 JUMP JUMPDEST POP POP POP JUMP JUMPDEST JUMPDEST DUP2 DUP2 LT ISZERO PUSH3 0x272 JUMPI PUSH3 0x266 PUSH1 0x0 DUP3 PUSH3 0x233 JUMP JUMPDEST PUSH1 0x1 DUP2 ADD SWAP1 POP PUSH3 0x250 JUMP JUMPDEST POP POP JUMP JUMPDEST PUSH1 0x1F DUP3 GT ISZERO PUSH3 0x2C1 JUMPI PUSH3 0x28B DUP2 PUSH3 0x135 JUMP JUMPDEST PUSH3 0x296 DUP5 PUSH3 0x14A JUMP JUMPDEST DUP2 ADD PUSH1 0x20 DUP6 LT ISZERO PUSH3 0x2A6 JUMPI DUP2 SWAP1 POP JUMPDEST PUSH3 0x2BE PUSH3 0x2B5 DUP6 PUSH3 0x14A JUMP JUMPDEST DUP4 ADD DUP3 PUSH3 0x24F JUMP JUMPDEST POP POP JUMPDEST POP POP POP JUMP JUMPDEST PUSH1 0x0 DUP3 DUP3 SHR SWAP1 POP SWAP3 SWAP2 POP POP JUMP JUMPDEST PUSH1 0x0 PUSH3 0x2E6 PUSH1 0x0 NOT DUP5 PUSH1 0x8 MUL PUSH3 0x2C6 JUMP JUMPDEST NOT DUP1 DUP4 AND SWAP2 POP POP SWAP3 SWAP2 POP POP JUMP JUMPDEST PUSH1 0x0 PUSH3 0x301 DUP4 DUP4 PUSH3 0x2D3 JUMP JUMPDEST SWAP2 POP DUP3 PUSH1 0x2 MUL DUP3 OR SWAP1 POP SWAP3 SWAP2 POP POP JUMP JUMPDEST PUSH3 0x31C DUP3 PUSH3 0x97 JUMP JUMPDEST PUSH8 0xFFFFFFFFFFFFFFFF DUP2 GT ISZERO PUSH3 0x338 JUMPI PUSH3 0x337 PUSH3 0xA2 JUMP JUMPDEST JUMPDEST PUSH3 0x344 DUP3 SLOAD PUSH3 0x100 JUMP JUMPDEST PUSH3 0x351 DUP3 DUP3 DUP6 PUSH3 0x276 JUMP JUMPDEST PUSH1 0x0 PUSH1 0x20 SWAP1 POP PUSH1 0x1F DUP4 GT PUSH1 0x1 DUP2 EQ PUSH3 0x389 JUMPI PUSH1 0x0 DUP5 ISZERO PUSH3 0x374 JUMPI DUP3 DUP8 ADD MLOAD SWAP1 POP JUMPDEST PUSH3 0x380 DUP6 DUP3 PUSH3 0x2F3 JUMP JUMPDEST DUP7 SSTORE POP PUSH3 0x3F0 JUMP JUMPDEST PUSH1 0x1F NOT DUP5 AND PUSH3 0x399 DUP7 PUSH3 0x135 JUMP JUMPDEST PUSH1 0x0 JUMPDEST DUP3 DUP2 LT ISZERO PUSH3 0x3C3 JUMPI DUP5 DUP10 ADD MLOAD DUP3 SSTORE PUSH1 0x1 DUP3 ADD SWAP2 POP PUSH1 0x20 DUP6 ADD SWAP5 POP PUSH1 0x20 DUP2 ADD SWAP1 POP PUSH3 0x39C JUMP JUMPDEST DUP7 DUP4 LT ISZERO PUSH3 0x3E3 JUMPI DUP5 DUP10 ADD MLOAD PUSH3 0x3DF PUSH1 0x1F DUP10 AND DUP3 PUSH3 0x2D3 JUMP JUMPDEST DUP4 SSTORE POP JUMPDEST PUSH1 0x1 PUSH1 0x2 DUP9 MUL ADD DUP9 SSTORE POP POP POP JUMPDEST POP POP POP POP POP POP JUMP JUMPDEST PUSH1 0x0 PUSH1 0x40 MLOAD SWAP1 POP SWAP1 JUMP JUMPDEST PUSH1 0x0 DUP1 REVERT JUMPDEST PUSH1 0x0 DUP1 REVERT JUMPDEST PUSH1 0x0 DUP1 REVERT JUMPDEST PUSH1 0x0 DUP1 REVERT JUMPDEST PUSH1 0x0 PUSH1 0x1F NOT PUSH1 0x1F DUP4 ADD AND SWAP1 POP SWAP2 SWAP1 POP JUMP JUMPDEST PUSH3 0x432 DUP3 PUSH3 0x416 JUMP JUMPDEST DUP2 ADD DUP2 DUP2 LT PUSH8 0xFFFFFFFFFFFFFFFF DUP3 GT OR ISZERO PUSH3 0x454 JUMPI PUSH3 0x453 PUSH3 0xA2 JUMP JUMPDEST JUMPDEST DUP1 PUSH1 0x40 MSTORE POP POP POP JUMP JUMPDEST PUSH1 0x0 PUSH3 0x469 PUSH3 0x3F8 JUMP JUMPDEST SWAP1 POP PUSH3 0x477 DUP3 DUP3 PUSH3 0x427 JUMP JUMPDEST SWAP2 SWAP1 POP JUMP JUMPDEST PUSH1 0x0 PUSH8 0xFFFFFFFFFFFFFFFF DUP3 GT ISZERO PUSH3 0x49A JUMPI PUSH3 0x499 PUSH3 0xA2 JUMP JUMPDEST JUMPDEST PUSH3 0x4A5 DUP3 PUSH3 0x416 JUMP JUMPDEST SWAP1 POP PUSH1 0x20 DUP2 ADD SWAP1 POP SWAP2 SWAP1 POP JUMP JUMPDEST PUSH1 0x0 JUMPDEST DUP4 DUP2 LT ISZERO PUSH3 0x4D2 JUMPI DUP1 DUP3 ADD MLOAD DUP2 DUP5 ADD MSTORE PUSH1 0x20 DUP2 ADD SWAP1 POP PUSH3 0x4B5 JUMP JUMPDEST PUSH1 0x0 DUP5 DUP5 ADD MSTORE POP POP POP POP JUMP JUMPDEST PUSH1 0x0 PUSH3 0x4F5 PUSH3 0x4EF DUP5 PUSH3 0x47C JUMP JUMPDEST PUSH3 0x45D JUMP JUMPDEST SWAP1 POP DUP3 DUP2 MSTORE PUSH1 0x20 DUP2 ADD DUP5 DUP5 DUP5 ADD GT ISZERO PUSH3 0x514 JUMPI PUSH3 0x513 PUSH3 0x411 JUMP JUMPDEST JUMPDEST PUSH3 0x521 DUP5 DUP3 DUP6 PUSH3 0x4B2 JUMP JUMPDEST POP SWAP4 SWAP3 POP POP POP JUMP JUMPDEST PUSH1 0x0 DUP3 PUSH1 0x1F DUP4 ADD SLT PUSH3 0x541 JUMPI PUSH3 0x540 PUSH3 0x40C JUMP JUMPDEST JUMPDEST DUP2 MLOAD PUSH3 0x553 DUP5 DUP3 PUSH1 0x20 DUP7 ADD PUSH3 0x4DE JUMP JUMPDEST SWAP2 POP POP SWAP3 SWAP2 POP POP JUMP JUMPDEST PUSH1 0x0 PUSH1 0x20 DUP3 DUP5 SUB SLT ISZERO PUSH3 0x575 JUMPI PUSH3 0x574 PUSH3 0x402 JUMP JUMPDEST JUMPDEST PUSH1 0x0 DUP3 ADD MLOAD PUSH8 0xFFFFFFFFFFFFFFFF DUP2 GT ISZERO PUSH3 0x596 JUMPI PUSH3 0x595 PUSH3 0x407 JUMP JUMPDEST JUMPDEST PUSH3 0x5A4 DUP5 DUP3 DUP6 ADD PUSH3 0x529 JUMP JUMPDEST SWAP2 POP POP SWAP3 SWAP2 POP POP JUMP JUMPDEST PUSH2 0x835 DUP1 PUSH3 0x5BD PUSH1 0x0 CODECOPY PUSH1 0x0 RETURN INVALID PUSH1 0x80 PUSH1 0x40 MSTORE CALLVALUE DUP1 ISZERO PUSH2 0x10 JUMPI PUSH1 0x0 DUP1 REVERT JUMPDEST POP PUSH1 0x4 CALLDATASIZE LT PUSH2 0x4C JUMPI PUSH1 0x0 CALLDATALOAD PUSH1 0xE0 SHR DUP1 PUSH4 0x6FDDE03 EQ PUSH2 0x51 JUMPI DUP1 PUSH4 0x21368607 EQ PUSH2 0x6F JUMPI DUP1 PUSH4 0xC47F0027 EQ PUSH2 0x8D JUMPI DUP1 PUSH4 0xFE50CC72 EQ PUSH2 0xA9 JUMPI JUMPDEST PUSH1 0x0 DUP1 REVERT JUMPDEST PUSH2 0x59 PUSH2 0xC7 JUMP JUMPDEST PUSH1 0x40 MLOAD PUSH2 0x66 SWAP2 SWAP1 PUSH2 0x2B1 JUMP JUMPDEST PUSH1 0x40 MLOAD DUP1 SWAP2 SUB SWAP1 RETURN JUMPDEST PUSH2 0x77 PUSH2 0x155 JUMP JUMPDEST PUSH1 0x40 MLOAD PUSH2 0x84 SWAP2 SWAP1 PUSH2 0x2B1 JUMP JUMPDEST PUSH1 0x40 MLOAD DUP1 SWAP2 SUB SWAP1 RETURN JUMPDEST PUSH2 0xA7 PUSH1 0x4 DUP1 CALLDATASIZE SUB DUP2 ADD SWAP1 PUSH2 0xA2 SWAP2 SWAP1 PUSH2 0x41C JUMP JUMPDEST PUSH2 0x1E3 JUMP JUMPDEST STOP JUMPDEST PUSH2 0xB1 PUSH2 0x1F6 JUMP JUMPDEST PUSH1 0x40 MLOAD PUSH2 0xBE SWAP2 SWAP1 PUSH2 0x2B1 JUMP JUMPDEST PUSH1 0x40 MLOAD DUP1 SWAP2 SUB SWAP1 RETURN JUMPDEST PUSH1 0x0 DUP1 SLOAD PUSH2 0xD4 SWAP1 PUSH2 0x494 JUMP JUMPDEST DUP1 PUSH1 0x1F ADD PUSH1 0x20 DUP1 SWAP2 DIV MUL PUSH1 0x20 ADD PUSH1 0x40 MLOAD SWAP1 DUP2 ADD PUSH1 0x40 MSTORE DUP1 SWAP3 SWAP2 SWAP1 DUP2 DUP2 MSTORE PUSH1 0x20 ADD DUP3 DUP1 SLOAD PUSH2 0x100 SWAP1 PUSH2 0x494 JUMP JUMPDEST DUP1 ISZERO PUSH2 0x14D JUMPI DUP1 PUSH1 0x1F LT PUSH2 0x122 JUMPI PUSH2 0x100 DUP1 DUP4 SLOAD DIV MUL DUP4 MSTORE SWAP2 PUSH1 0x20 ADD SWAP2 PUSH2 0x14D JUMP JUMPDEST DUP3 ADD SWAP2 SWAP1 PUSH1 0x0 MSTORE PUSH1 0x20 PUSH1 0x0 KECCAK256 SWAP1 JUMPDEST DUP2 SLOAD DUP2 MSTORE SWAP1 PUSH1 0x1 ADD SWAP1 PUSH1 0x20 ADD DUP1 DUP4 GT PUSH2 0x130 JUMPI DUP3 SWAP1 SUB PUSH1 0x1F AND DUP3 ADD SWAP2 JUMPDEST POP POP POP POP POP DUP2 JUMP JUMPDEST PUSH1 0x1 DUP1 SLOAD PUSH2 0x162 SWAP1 PUSH2 0x494 JUMP JUMPDEST DUP1 PUSH1 0x1F ADD PUSH1 0x20 DUP1 SWAP2 DIV MUL PUSH1 0x20 ADD PUSH1 0x40 MLOAD SWAP1 DUP2 ADD PUSH1 0x40 MSTORE DUP1 SWAP3 SWAP2 SWAP1 DUP2 DUP2 MSTORE PUSH1 0x20 ADD DUP3 DUP1 SLOAD PUSH2 0x18E SWAP1 PUSH2 0x494 JUMP JUMPDEST DUP1 ISZERO PUSH2 0x1DB JUMPI DUP1 PUSH1 0x1F LT PUSH2 0x1B0 JUMPI PUSH2 0x100 DUP1 DUP4 SLOAD DIV MUL DUP4 MSTORE SWAP2 PUSH1 0x20 ADD SWAP2 PUSH2 0x1DB JUMP JUMPDEST DUP3 ADD SWAP2 SWAP1 PUSH1 0x0 MSTORE PUSH1 0x20 PUSH1 0x0 KECCAK256 SWAP1 JUMPDEST DUP2 SLOAD DUP2 MSTORE SWAP1 PUSH1 0x1 ADD SWAP1 PUSH1 0x20 ADD DUP1 DUP4 GT PUSH2 0x1BE JUMPI DUP3 SWAP1 SUB PUSH1 0x1F AND DUP3 ADD SWAP2 JUMPDEST POP POP POP POP POP DUP2 JUMP JUMPDEST DUP1 PUSH1 0x0 SWAP1 DUP2 PUSH2 0x1F2 SWAP2 SWAP1 PUSH2 0x67B JUMP JUMPDEST POP POP JUMP JUMPDEST PUSH1 0x60 PUSH1 0x1 PUSH1 0x0 PUSH1 0x40 MLOAD PUSH1 0x20 ADD PUSH2 0x20D SWAP3 SWAP2 SWAP1 PUSH2 0x7DB JUMP JUMPDEST PUSH1 0x40 MLOAD PUSH1 0x20 DUP2 DUP4 SUB SUB DUP2 MSTORE SWAP1 PUSH1 0x40 MSTORE SWAP1 POP SWAP1 JUMP JUMPDEST PUSH1 0x0 DUP2 MLOAD SWAP1 POP SWAP2 SWAP1 POP JUMP JUMPDEST PUSH1 0x0 DUP3 DUP3 MSTORE PUSH1 0x20 DUP3 ADD SWAP1 POP SWAP3 SWAP2 POP POP JUMP JUMPDEST PUSH1 0x0 JUMPDEST DUP4 DUP2 LT ISZERO PUSH2 0x25B JUMPI DUP1 DUP3 ADD MLOAD DUP2 DUP5 ADD MSTORE PUSH1 0x20 DUP2 ADD SWAP1 POP PUSH2 0x240 JUMP JUMPDEST PUSH1 0x0 DUP5 DUP5 ADD MSTORE POP POP POP POP JUMP JUMPDEST PUSH1 0x0 PUSH1 0x1F NOT PUSH1 0x1F DUP4 ADD AND SWAP1 POP SWAP2 SWAP1 POP JUMP JUMPDEST PUSH1 0x0 PUSH2 0x283 DUP3 PUSH2 0x221 JUMP JUMPDEST PUSH2 0x28D DUP2 DUP6 PUSH2 0x22C JUMP JUMPDEST SWAP4 POP PUSH2 0x29D DUP2 DUP6 PUSH1 0x20 DUP7 ADD PUSH2 0x23D JUMP JUMPDEST PUSH2 0x2A6 DUP2 PUSH2 0x267 JUMP JUMPDEST DUP5 ADD SWAP2 POP POP SWAP3 SWAP2 POP POP JUMP JUMPDEST PUSH1 0x0 PUSH1 0x20 DUP3 ADD SWAP1 POP DUP2 DUP2 SUB PUSH1 0x0 DUP4 ADD MSTORE PUSH2 0x2CB DUP2 DUP5 PUSH2 0x278 JUMP JUMPDEST SWAP1 POP SWAP3 SWAP2 POP POP JUMP JUMPDEST PUSH1 0x0 PUSH1 0x40 MLOAD SWAP1 POP SWAP1 JUMP JUMPDEST PUSH1 0x0 DUP1 REVERT JUMPDEST PUSH1 0x0 DUP1 REVERT JUMPDEST PUSH1 0x0 DUP1 REVERT JUMPDEST PUSH1 0x0 DUP1 REVERT JUMPDEST PUSH32 0x4E487B7100000000000000000000000000000000000000000000000000000000 PUSH1 0x0 MSTORE PUSH1 0x41 PUSH1 0x4 MSTORE PUSH1 0x24 PUSH1 0x0 REVERT JUMPDEST PUSH2 0x329 DUP3 PUSH2 0x267 JUMP JUMPDEST DUP2 ADD DUP2 DUP2 LT PUSH8 0xFFFFFFFFFFFFFFFF DUP3 GT OR ISZERO PUSH2 0x348 JUMPI PUSH2 0x347 PUSH2 0x2F1 JUMP JUMPDEST JUMPDEST DUP1 PUSH1 0x40 MSTORE POP POP POP JUMP JUMPDEST PUSH1 0x0 PUSH2 0x35B PUSH2 0x2D3 JUMP JUMPDEST SWAP1 POP PUSH2 0x367 DUP3 DUP3 PUSH2 0x320 JUMP JUMPDEST SWAP2 SWAP1 POP JUMP JUMPDEST PUSH1 0x0 PUSH8 0xFFFFFFFFFFFFFFFF DUP3 GT ISZERO PUSH2 0x387 JUMPI PUSH2 0x386 PUSH2 0x2F1 JUMP JUMPDEST JUMPDEST PUSH2 0x390 DUP3 PUSH2 0x267 JUMP JUMPDEST SWAP1 POP PUSH1 0x20 DUP2 ADD SWAP1 POP SWAP2 SWAP1 POP JUMP JUMPDEST DUP3 DUP2 DUP4 CALLDATACOPY PUSH1 0x0 DUP4 DUP4 ADD MSTORE POP POP POP JUMP JUMPDEST PUSH1 0x0 PUSH2 0x3BF PUSH2 0x3BA DUP5 PUSH2 0x36C JUMP JUMPDEST PUSH2 0x351 JUMP JUMPDEST SWAP1 POP DUP3 DUP2 MSTORE PUSH1 0x20 DUP2 ADD DUP5 DUP5 DUP5 ADD GT ISZERO PUSH2 0x3DB JUMPI PUSH2 0x3DA PUSH2 0x2EC JUMP JUMPDEST JUMPDEST PUSH2 0x3E6 DUP5 DUP3 DUP6 PUSH2 0x39D JUMP JUMPDEST POP SWAP4 SWAP3 POP POP POP JUMP JUMPDEST PUSH1 0x0 DUP3 PUSH1 0x1F DUP4 ADD SLT PUSH2 0x403 JUMPI PUSH2 0x402 PUSH2 0x2E7 JUMP JUMPDEST JUMPDEST DUP2 CALLDATALOAD PUSH2 0x413 DUP5 DUP3 PUSH1 0x20 DUP7 ADD PUSH2 0x3AC JUMP JUMPDEST SWAP2 POP POP SWAP3 SWAP2 POP POP JUMP JUMPDEST PUSH1 0x0 PUSH1 0x20 DUP3 DUP5 SUB SLT ISZERO PUSH2 0x432 JUMPI PUSH2 0x431 PUSH2 0x2DD JUMP JUMPDEST JUMPDEST PUSH1 0x0 DUP3 ADD CALLDATALOAD PUSH8 0xFFFFFFFFFFFFFFFF DUP2 GT ISZERO PUSH2 0x450 JUMPI PUSH2 0x44F PUSH2 0x2E2 JUMP JUMPDEST JUMPDEST PUSH2 0x45C DUP5 DUP3 DUP6 ADD PUSH2 0x3EE JUMP JUMPDEST SWAP2 POP POP SWAP3 SWAP2 POP POP JUMP JUMPDEST PUSH32 0x4E487B7100000000000000000000000000000000000000000000000000000000 PUSH1 0x0 MSTORE PUSH1 0x22 PUSH1 0x4 MSTORE PUSH1 0x24 PUSH1 0x0 REVERT JUMPDEST PUSH1 0x0 PUSH1 0x2 DUP3 DIV SWAP1 POP PUSH1 0x1 DUP3 AND DUP1 PUSH2 0x4AC JUMPI PUSH1 0x7F DUP3 AND SWAP2 POP JUMPDEST PUSH1 0x20 DUP3 LT DUP2 SUB PUSH2 0x4BF JUMPI PUSH2 0x4BE PUSH2 0x465 JUMP JUMPDEST JUMPDEST POP SWAP2 SWAP1 POP JUMP JUMPDEST PUSH1 0x0 DUP2 SWAP1 POP DUP2 PUSH1 0x0 MSTORE PUSH1 0x20 PUSH1 0x0 KECCAK256 SWAP1 POP SWAP2 SWAP1 POP JUMP JUMPDEST PUSH1 0x0 PUSH1 0x20 PUSH1 0x1F DUP4 ADD DIV SWAP1 POP SWAP2 SWAP1 POP JUMP JUMPDEST PUSH1 0x0 DUP3 DUP3 SHL SWAP1 POP SWAP3 SWAP2 POP POP JUMP JUMPDEST PUSH1 0x0 PUSH1 0x8 DUP4 MUL PUSH2 0x527 PUSH32 0xFFFFFFFFFFFFFFFFFFFFFFFFFFFFFFFFFFFFFFFFFFFFFFFFFFFFFFFFFFFFFFFF DUP3 PUSH2 0x4EA JUMP JUMPDEST PUSH2 0x531 DUP7 DUP4 PUSH2 0x4EA JUMP JUMPDEST SWAP6 POP DUP1 NOT DUP5 AND SWAP4 POP DUP1 DUP7 AND DUP5 OR SWAP3 POP POP POP SWAP4 SWAP3 POP POP POP JUMP JUMPDEST PUSH1 0x0 DUP2 SWAP1 POP SWAP2 SWAP1 POP JUMP JUMPDEST PUSH1 0x0 DUP2 SWAP1 POP SWAP2 SWAP1 POP JUMP JUMPDEST PUSH1 0x0 PUSH2 0x578 PUSH2 0x573 PUSH2 0x56E DUP5 PUSH2 0x549 JUMP JUMPDEST PUSH2 0x553 JUMP JUMPDEST PUSH2 0x549 JUMP JUMPDEST SWAP1 POP SWAP2 SWAP1 POP JUMP JUMPDEST PUSH1 0x0 DUP2 SWAP1 POP SWAP2 SWAP1 POP JUMP JUMPDEST PUSH2 0x592 DUP4 PUSH2 0x55D JUMP JUMPDEST PUSH2 0x5A6 PUSH2 0x59E DUP3 PUSH2 0x57F JUMP JUMPDEST DUP5 DUP5 SLOAD PUSH2 0x4F7 JUMP JUMPDEST DUP3 SSTORE POP POP POP POP JUMP JUMPDEST PUSH1 0x0 SWAP1 JUMP JUMPDEST PUSH2 0x5BB PUSH2 0x5AE JUMP JUMPDEST PUSH2 0x5C6 DUP2 DUP5 DUP5 PUSH2 0x589 JUMP JUMPDEST POP POP POP JUMP JUMPDEST JUMPDEST DUP2 DUP2 LT ISZERO PUSH2 0x5EA JUMPI PUSH2 0x5DF PUSH1 0x0 DUP3 PUSH2 0x5B3 JUMP JUMPDEST PUSH1 0x1 DUP2 ADD SWAP1 POP PUSH2 0x5CC JUMP JUMPDEST POP POP JUMP JUMPDEST PUSH1 0x1F DUP3 GT ISZERO PUSH2 0x62F JUMPI PUSH2 0x600 DUP2 PUSH2 0x4C5 JUMP JUMPDEST PUSH2 0x609 DUP5 PUSH2 0x4DA JUMP JUMPDEST DUP2 ADD PUSH1 0x20 DUP6 LT ISZERO PUSH2 0x618 JUMPI DUP2 SWAP1 POP JUMPDEST PUSH2 0x62C PUSH2 0x624 DUP6 PUSH2 0x4DA JUMP JUMPDEST DUP4 ADD DUP3 PUSH2 0x5CB JUMP JUMPDEST POP POP JUMPDEST POP POP POP JUMP JUMPDEST PUSH1 0x0 DUP3 DUP3 SHR SWAP1 POP SWAP3 SWAP2 POP POP JUMP JUMPDEST PUSH1 0x0 PUSH2 0x652 PUSH1 0x0 NOT DUP5 PUSH1 0x8 MUL PUSH2 0x634 JUMP JUMPDEST NOT DUP1 DUP4 AND SWAP2 POP POP SWAP3 SWAP2 POP POP JUMP JUMPDEST PUSH1 0x0 PUSH2 0x66B DUP4 DUP4 PUSH2 0x641 JUMP JUMPDEST SWAP2 POP DUP3 PUSH1 0x2 MUL DUP3 OR SWAP1 POP SWAP3 SWAP2 POP POP JUMP JUMPDEST PUSH2 0x684 DUP3 PUSH2 0x221 JUMP JUMPDEST PUSH8 0xFFFFFFFFFFFFFFFF DUP2 GT ISZERO PUSH2 0x69D JUMPI PUSH2 0x69C PUSH2 0x2F1 JUMP JUMPDEST JUMPDEST PUSH2 0x6A7 DUP3 SLOAD PUSH2 0x494 JUMP JUMPDEST PUSH2 0x6B2 DUP3 DUP3 DUP6 PUSH2 0x5EE JUMP JUMPDEST PUSH1 0x0 PUSH1 0x20 SWAP1 POP PUSH1 0x1F DUP4 GT PUSH1 0x1 DUP2 EQ PUSH2 0x6E5 JUMPI PUSH1 0x0 DUP5 ISZERO PUSH2 0x6D3 JUMPI DUP3 DUP8 ADD MLOAD SWAP1 POP JUMPDEST PUSH2 0x6DD DUP6 DUP3 PUSH2 0x65F JUMP JUMPDEST DUP7 SSTORE POP PUSH2 0x745 JUMP JUMPDEST PUSH1 0x1F NOT DUP5 AND PUSH2 0x6F3 DUP7 PUSH2 0x4C5 JUMP JUMPDEST PUSH1 0x0 JUMPDEST DUP3 DUP2 LT ISZERO PUSH2 0x71B JUMPI DUP5 DUP10 ADD MLOAD DUP3 SSTORE PUSH1 0x1 DUP3 ADD SWAP2 POP PUSH1 0x20 DUP6 ADD SWAP5 POP PUSH1 0x20 DUP2 ADD SWAP1 POP PUSH2 0x6F6 JUMP JUMPDEST DUP7 DUP4 LT ISZERO PUSH2 0x738 JUMPI DUP5 DUP10 ADD MLOAD PUSH2 0x734 PUSH1 0x1F DUP10 AND DUP3 PUSH2 0x641 JUMP JUMPDEST DUP4 SSTORE POP JUMPDEST PUSH1 0x1 PUSH1 0x2 DUP9 MUL ADD DUP9 SSTORE POP POP POP JUMPDEST POP POP POP POP POP POP JUMP JUMPDEST PUSH1 0x0 DUP2 SWAP1 POP SWAP3 SWAP2 POP POP JUMP JUMPDEST PUSH1 0x0 DUP2 SLOAD PUSH2 0x765 DUP2 PUSH2 0x494 JUMP JUMPDEST PUSH2 0x76F DUP2 DUP7 PUSH2 0x74D JUMP JUMPDEST SWAP5 POP PUSH1 0x1 DUP3 AND PUSH1 0x0 DUP2 EQ PUSH2 0x78A JUMPI PUSH1 0x1 DUP2 EQ PUSH2 0x79F JUMPI PUSH2 0x7D2 JUMP JUMPDEST PUSH1 0xFF NOT DUP4 AND DUP7 MSTORE DUP2 ISZERO ISZERO DUP3 MUL DUP7 ADD SWAP4 POP PUSH2 0x7D2 JUMP JUMPDEST PUSH2 0x7A8 DUP6 PUSH2 0x4C5 JUMP JUMPDEST PUSH1 0x0 JUMPDEST DUP4 DUP2 LT ISZERO PUSH2 0x7CA JUMPI DUP2 SLOAD DUP2 DUP10 ADD MSTORE PUSH1 0x1 DUP3 ADD SWAP2 POP PUSH1 0x20 DUP2 ADD SWAP1 POP PUSH2 0x7AB JUMP JUMPDEST DUP4 DUP9 ADD SWAP6 POP POP POP JUMPDEST POP POP POP SWAP3 SWAP2 POP POP JUMP JUMPDEST PUSH1 0x0 PUSH2 0x7E7 DUP3 DUP6 PUSH2 0x758 JUMP JUMPDEST SWAP2 POP PUSH2 0x7F3 DUP3 DUP5 PUSH2 0x758 JUMP JUMPDEST SWAP2 POP DUP2 SWAP1 POP SWAP4 SWAP3 POP POP POP JUMP INVALID LOG2 PUSH5 0x6970667358 0x22 SLT KECCAK256 0xBC KECCAK256 DUP8 0xDD SWAP4 DUP2 0xD1 LOG4 0x2A 0xCE SWAP11 SWAP14 PUSH19 0x996AB91973BFF89BF22906D3BAB1480B4C9813 PUSH5 0x736F6C6343 STOP ADDMOD GT STOP CALLER "
		},
		"gasEstimates": {
			"creation": {
				"codeDepositCost": "420200",
				"executionCost": "infinite",
				"totalCost": "infinite"
			},
			"external": {
				"getGreeting()": "infinite",
				"greetingPrefix()": "infinite",
				"name()": "infinite",
				"setName(string)": "infinite"
			}
		},
		"methodIdentifiers": {
			"getGreeting()": "fe50cc72",
			"greetingPrefix()": "21368607",
			"name()": "06fdde03",
			"setName(string)": "c47f0027"
		}
	},
	"abi": [
		{
			"inputs": [
				{
					"internalType": "string",
					"name": "initialname",
					"type": "string"
				}
			],
			"stateMutability": "nonpayable",
			"type": "constructor"
		},
		{
			"inputs": [],
			"name": "getGreeting",
			"outputs": [
				{
					"internalType": "string",
					"name": "",
					"type": "string"
				}
			],
			"stateMutability": "view",
			"type": "function"
		},
		{
			"inputs": [],
			"name": "greetingPrefix",
			"outputs": [
				{
					"internalType": "string",
					"name": "",
					"type": "string"
				}
			],
			"stateMutability": "view",
			"type": "function"
		},
		{
			"inputs": [],
			"name": "name",
			"outputs": [
				{
					"internalType": "string",
					"name": "",
					"type": "string"
				}
			],
			"stateMutability": "view",
			"type": "function"
		},
		{
			"inputs": [
				{
					"internalType": "string",
					"name": "newname",
					"type": "string"
				}
			],
			"name": "setName",
			"outputs": [],
			"stateMutability": "nonpayable",
			"type": "function"
		}
	]
}