{
	"data": {
		"bytecode": {
			"linkReferences": {},
			"object": "608060405260657f0100000000000000000000000000000000000000000000000000000000000000026000806101000a81548160ff02191690837f010000000000000000000000000000000000000000000000000000000000000090040217905550600a7f010000000000000000000000000000000000000000000000000000000000000002600060016101000a81548160ff02191690837f0100000000000000000000000000000000000000000000000000000000000000900402179055506101007e0100000000000000000000000000000000000000000000000000000000000002600060026101000a81548161ffff02191690837e01000000000000000000000000000000000000000000000000000000000000900402179055507f6100000000000000000000000000000000000000000000000000000000000000600060046101000a81548160ff02191690837f01000000000000000000000000000000000000000000000000000000000000009004021790555034801561018457600080fd5b50610632806101946000396000f300608060405260043610610099576000357c0100000000000000000000000000000000000000000000000000000000900463ffffffff168063066186051461009e57806313a9ca121461010b5780633b255757146101365780635dd9d8a7146101615780637f38a19e1461018c578063d333f46b146101fb578063e64d77c614610268578063e9c66ccf146102d7578063ff14b94114610302575b600080fd5b3480156100aa57600080fd5b506100b3610371565b60405180827dffffffffffffffffffffffffffffffffffffffffffffffffffffffffffff19167dffffffffffffffffffffffffffffffffffffffffffffffffffffffffffff1916815260200191505060405180910390f35b34801561011757600080fd5b506101206103a5565b6040518082815260200191505060405180910390f35b34801561014257600080fd5b5061014b610400565b6040518082815260200191505060405180910390f35b34801561016d57600080fd5b5061017661045b565b6040518082815260200191505060405180910390f35b34801561019857600080fd5b506101a16104b5565b60405180827effffffffffffffffffffffffffffffffffffffffffffffffffffffffffffff19167effffffffffffffffffffffffffffffffffffffffffffffffffffffffffffff1916815260200191505060405180910390f35b34801561020757600080fd5b506102106104ea565b60405180827dffffffffffffffffffffffffffffffffffffffffffffffffffffffffffff19167dffffffffffffffffffffffffffffffffffffffffffffffffffffffffffff1916815260200191505060405180910390f35b34801561027457600080fd5b5061027d610541565b60405180827effffffffffffffffffffffffffffffffffffffffffffffffffffffffffffff19167effffffffffffffffffffffffffffffffffffffffffffffffffffffffffffff1916815260200191505060405180910390f35b3480156102e357600080fd5b506102ec610576565b6040518082815260200191505060405180910390f35b34801561030e57600080fd5b506103176105d1565b60405180827effffffffffffffffffffffffffffffffffffffffffffffffffffffffffffff19167effffffffffffffffffffffffffffffffffffffffffffffffffffffffffffff1916815260200191505060405180910390f35b60008060029054906101000a90047e0100000000000000000000000000000000000000000000000000000000000002905090565b60008060009054906101000a90047f0100000000000000000000000000000000000000000000000000000000000000027f0100000000000000000000000000000000000000000000000000000000000000900460ff16905090565b60008060049054906101000a90047f0100000000000000000000000000000000000000000000000000000000000000027f0100000000000000000000000000000000000000000000000000000000000000900460ff16905090565b60008060029054906101000a90047e01000000000000000000000000000000000000000000000000000000000000027e01000000000000000000000000000000000000000000000000000000000000900461ffff16905090565b60008060019054906101000a90047f010000000000000000000000000000000000000000000000000000000000000002905090565b60008060049054906101000a90047f0100000000000000000000000000000000000000000000000000000000000000027effffffffffffffffffffffffffffffffffffffffffffffffffffffffffffff1916905090565b60008060009054906101000a90047f010000000000000000000000000000000000000000000000000000000000000002905090565b60008060019054906101000a90047f0100000000000000000000000000000000000000000000000000000000000000027f0100000000000000000000000000000000000000000000000000000000000000900460ff16905090565b60008060059054906101000a90047f0100000000000000000000000000000000000000000000000000000000000000029050905600a165627a7a7230582043e5d29c1c1ebc97e5aff4123d8f1af1df7f96d1df56e6329b9e10b7407470910029",
			"opcodes": "PUSH1 0x80 PUSH1 0x40 MSTORE PUSH1 0x65 PUSH32 0x100000000000000000000000000000000000000000000000000000000000000 MUL PUSH1 0x0 DUP1 PUSH2 0x100 EXP DUP2 SLOAD DUP2 PUSH1 0xFF MUL NOT AND SWAP1 DUP4 PUSH32 0x100000000000000000000000000000000000000000000000000000000000000 SWAP1 DIV MUL OR SWAP1 SSTORE POP PUSH1 0xA PUSH32 0x100000000000000000000000000000000000000000000000000000000000000 MUL PUSH1 0x0 PUSH1 0x1 PUSH2 0x100 EXP DUP2 SLOAD DUP2 PUSH1 0xFF MUL NOT AND SWAP1 DUP4 PUSH32 0x100000000000000000000000000000000000000000000000000000000000000 SWAP1 DIV MUL OR SWAP1 SSTORE POP PUSH2 0x100 PUSH31 0x1000000000000000000000000000000000000000000000000000000000000 MUL PUSH1 0x0 PUSH1 0x2 PUSH2 0x100 EXP DUP2 SLOAD DUP2 PUSH2 0xFFFF MUL NOT AND SWAP1 DUP4 PUSH31 0x1000000000000000000000000000000000000000000000000000000000000 SWAP1 DIV MUL OR SWAP1 SSTORE POP PUSH32 0x6100000000000000000000000000000000000000000000000000000000000000 PUSH1 0x0 PUSH1 0x4 PUSH2 0x100 EXP DUP2 SLOAD DUP2 PUSH1 0xFF MUL NOT AND SWAP1 DUP4 PUSH32 0x100000000000000000000000000000000000000000000000000000000000000 SWAP1 DIV MUL OR SWAP1 SSTORE POP CALLVALUE DUP1 ISZERO PUSH2 0x184 JUMPI PUSH1 0x0 DUP1 REVERT JUMPDEST POP PUSH2 0x632 DUP1 PUSH2 0x194 PUSH1 0x0 CODECOPY PUSH1 0x0 RETURN STOP PUSH1 0x80 PUSH1 0x40 MSTORE PUSH1 0x4 CALLDATASIZE LT PUSH2 0x99 JUMPI PUSH1 0x0 CALLDATALOAD PUSH29 0x100000000000000000000000000000000000000000000000000000000 SWAP1 DIV PUSH4 0xFFFFFFFF AND DUP1 PUSH4 0x6618605 EQ PUSH2 0x9E JUMPI DUP1 PUSH4 0x13A9CA12 EQ PUSH2 0x10B JUMPI DUP1 PUSH4 0x3B255757 EQ PUSH2 0x136 JUMPI DUP1 PUSH4 0x5DD9D8A7 EQ PUSH2 0x161 JUMPI DUP1 PUSH4 0x7F38A19E EQ PUSH2 0x18C JUMPI DUP1 PUSH4 0xD333F46B EQ PUSH2 0x1FB JUMPI DUP1 PUSH4 0xE64D77C6 EQ PUSH2 0x268 JUMPI DUP1 PUSH4 0xE9C66CCF EQ PUSH2 0x2D7 JUMPI DUP1 PUSH4 0xFF14B941 EQ PUSH2 0x302 JUMPI JUMPDEST PUSH1 0x0 DUP1 REVERT JUMPDEST CALLVALUE DUP1 ISZERO PUSH2 0xAA JUMPI PUSH1 0x0 DUP1 REVERT JUMPDEST POP PUSH2 0xB3 PUSH2 0x371 JUMP JUMPDEST PUSH1 0x40 MLOAD DUP1 DUP3 PUSH30 0xFFFFFFFFFFFFFFFFFFFFFFFFFFFFFFFFFFFFFFFFFFFFFFFFFFFFFFFFFFFF NOT AND PUSH30 0xFFFFFFFFFFFFFFFFFFFFFFFFFFFFFFFFFFFFFFFFFFFFFFFFFFFFFFFFFFFF NOT AND DUP2 MSTORE PUSH1 0x20 ADD SWAP2 POP POP PUSH1 0x40 MLOAD DUP1 SWAP2 SUB SWAP1 RETURN JUMPDEST CALLVALUE DUP1 ISZERO PUSH2 0x117 JUMPI PUSH1 0x0 DUP1 REVERT JUMPDEST POP PUSH2 0x120 PUSH2 0x3A5 JUMP JUMPDEST PUSH1 0x40 MLOAD DUP1 DUP3 DUP2 MSTORE PUSH1 0x20 ADD SWAP2 POP POP PUSH1 0x40 MLOAD DUP1 SWAP2 SUB SWAP1 RETURN JUMPDEST CALLVALUE DUP1 ISZERO PUSH2 0x142 JUMPI PUSH1 0x0 DUP1 REVERT JUMPDEST POP PUSH2 0x14B PUSH2 0x400 JUMP JUMPDEST PUSH1 0x40 MLOAD DUP1 DUP3 DUP2 MSTORE PUSH1 0x20 ADD SWAP2 POP POP PUSH1 0x40 MLOAD DUP1 SWAP2 SUB SWAP1 RETURN JUMPDEST CALLVALUE DUP1 ISZERO PUSH2 0x16D JUMPI PUSH1 0x0 DUP1 REVERT JUMPDEST POP PUSH2 0x176 PUSH2 0x45B JUMP JUMPDEST PUSH1 0x40 MLOAD DUP1 DUP3 DUP2 MSTORE PUSH1 0x20 ADD SWAP2 POP POP PUSH1 0x40 MLOAD DUP1 SWAP2 SUB SWAP1 RETURN JUMPDEST CALLVALUE DUP1 ISZERO PUSH2 0x198 JUMPI PUSH1 0x0 DUP1 REVERT JUMPDEST POP PUSH2 0x1A1 PUSH2 0x4B5 JUMP JUMPDEST PUSH1 0x40 MLOAD DUP1 DUP3 PUSH31 0xFFFFFFFFFFFFFFFFFFFFFFFFFFFFFFFFFFFFFFFFFFFFFFFFFFFFFFFFFFFFFF NOT AND PUSH31 0xFFFFFFFFFFFFFFFFFFFFFFFFFFFFFFFFFFFFFFFFFFFFFFFFFFFFFFFFFFFFFF NOT AND DUP2 MSTORE PUSH1 0x20 ADD SWAP2 POP POP PUSH1 0x40 MLOAD DUP1 SWAP2 SUB SWAP1 RETURN JUMPDEST CALLVALUE DUP1 ISZERO PUSH2 0x207 JUMPI PUSH1 0x0 DUP1 REVERT JUMPDEST POP PUSH2 0x210 PUSH2 0x4EA JUMP JUMPDEST PUSH1 0x40 MLOAD DUP1 DUP3 PUSH30 0xFFFFFFFFFFFFFFFFFFFFFFFFFFFFFFFFFFFFFFFFFFFFFFFFFFFFFFFFFFFF NOT AND PUSH30 0xFFFFFFFFFFFFFFFFFFFFFFFFFFFFFFFFFFFFFFFFFFFFFFFFFFFFFFFFFFFF NOT AND DUP2 MSTORE PUSH1 0x20 ADD SWAP2 POP POP PUSH1 0x40 MLOAD DUP1 SWAP2 SUB SWAP1 RETURN JUMPDEST CALLVALUE DUP1 ISZERO PUSH2 0x274 JUMPI PUSH1 0x0 DUP1 REVERT JUMPDEST POP PUSH2 0x27D PUSH2 0x541 JUMP JUMPDEST PUSH1 0x40 MLOAD DUP1 DUP3 PUSH31 0xFFFFFFFFFFFFFFFFFFFFFFFFFFFFFFFFFFFFFFFFFFFFFFFFFFFFFFFFFFFFFF NOT AND PUSH31 0xFFFFFFFFFFFFFFFFFFFFFFFFFFFFFFFFFFFFFFFFFFFFFFFFFFFFFFFFFFFFFF NOT AND DUP2 MSTORE PUSH1 0x20 ADD SWAP2 POP POP PUSH1 0x40 MLOAD DUP1 SWAP2 SUB SWAP1 RETURN JUMPDEST CALLVALUE DUP1 ISZERO PUSH2 0x2E3 JUMPI PUSH1 0x0 DUP1 REVERT JUMPDEST POP PUSH2 0x2EC PUSH2 0x576 JUMP JUMPDEST PUSH1 0x40 MLOAD DUP1 DUP3 DUP2 MSTORE PUSH1 0x20 ADD SWAP2 POP POP PUSH1 0x40 MLOAD DUP1 SWAP2 SUB SWAP1 RETURN JUMPDEST CALLVALUE DUP1 ISZERO PUSH2 0x30E JUMPI PUSH1 0x0 DUP1 REVERT JUMPDEST POP PUSH2 0x317 PUSH2 0x5D1 JUMP JUMPDEST PUSH1 0x40 MLOAD DUP1 DUP3 PUSH31 0xFFFFFFFFFFFFFFFFFFFFFFFFFFFFFFFFFFFFFFFFFFFFFFFFFFFFFFFFFFFFFF NOT AND PUSH31 0xFFFFFFFFFFFFFFFFFFFFFFFFFFFFFFFFFFFFFFFFFFFFFFFFFFFFFFFFFFFFFF NOT AND DUP2 MSTORE PUSH1 0x20 ADD SWAP2 POP POP PUSH1 0x40 MLOAD DUP1 SWAP2 SUB SWAP1 RETURN JUMPDEST PUSH1 0x0 DUP1 PUSH1 0x2 SWAP1 SLOAD SWAP1 PUSH2 0x100 EXP SWAP1 DIV PUSH31 0x1000000000000000000000000000000000000000000000000000000000000 MUL SWAP1 POP SWAP1 JUMP JUMPDEST PUSH1 0x0 DUP1 PUSH1 0x0 SWAP1 SLOAD SWAP1 PUSH2 0x100 EXP SWAP1 DIV PUSH32 0x100000000000000000000000000000000000000000000000000000000000000 MUL PUSH32 0x100000000000000000000000000000000000000000000000000000000000000 SWAP1 DIV PUSH1 0xFF AND SWAP1 POP SWAP1 JUMP JUMPDEST PUSH1 0x0 DUP1 PUSH1 0x4 SWAP1 SLOAD SWAP1 PUSH2 0x100 EXP SWAP1 DIV PUSH32 0x100000000000000000000000000000000000000000000000000000000000000 MUL PUSH32 0x100000000000000000000000000000000000000000000000000000000000000 SWAP1 DIV PUSH1 0xFF AND SWAP1 POP SWAP1 JUMP JUMPDEST PUSH1 0x0 DUP1 PUSH1 0x2 SWAP1 SLOAD SWAP1 PUSH2 0x100 EXP SWAP1 DIV PUSH31 0x1000000000000000000000000000000000000000000000000000000000000 MUL PUSH31 0x1000000000000000000000000000000000000000000000000000000000000 SWAP1 DIV PUSH2 0xFFFF AND SWAP1 POP SWAP1 JUMP JUMPDEST PUSH1 0x0 DUP1 PUSH1 0x1 SWAP1 SLOAD SWAP1 PUSH2 0x100 EXP SWAP1 DIV PUSH32 0x100000000000000000000000000000000000000000000000000000000000000 MUL SWAP1 POP SWAP1 JUMP JUMPDEST PUSH1 0x0 DUP1 PUSH1 0x4 SWAP1 SLOAD SWAP1 PUSH2 0x100 EXP SWAP1 DIV PUSH32 0x100000000000000000000000000000000000000000000000000000000000000 MUL PUSH31 0xFFFFFFFFFFFFFFFFFFFFFFFFFFFFFFFFFFFFFFFFFFFFFFFFFFFFFFFFFFFFFF NOT AND SWAP1 POP SWAP1 JUMP JUMPDEST PUSH1 0x0 DUP1 PUSH1 0x0 SWAP1 SLOAD SWAP1 PUSH2 0x100 EXP SWAP1 DIV PUSH32 0x100000000000000000000000000000000000000000000000000000000000000 MUL SWAP1 POP SWAP1 JUMP JUMPDEST PUSH1 0x0 DUP1 PUSH1 0x1 SWAP1 SLOAD SWAP1 PUSH2 0x100 EXP SWAP1 DIV PUSH32 0x100000000000000000000000000000000000000000000000000000000000000 MUL PUSH32 0x100000000000000000000000000000000000000000000000000000000000000 SWAP1 DIV PUSH1 0xFF AND SWAP1 POP SWAP1 JUMP JUMPDEST PUSH1 0x0 DUP1 PUSH1 0x5 SWAP1 SLOAD SWAP1 PUSH2 0x100 EXP SWAP1 DIV PUSH32 0x100000000000000000000000000000000000000000000000000000000000000 MUL SWAP1 POP SWAP1 JUMP STOP LOG1 PUSH6 0x627A7A723058 KECCAK256 NUMBER 0xe5 0xd2 SWAP13 SHR 0x1e 0xbc SWAP8 0xe5 0xaf DELEGATECALL SLT RETURNDATASIZE DUP16 BYTE CALL 0xdf PUSH32 0x96D1DF56E6329B9E10B740747091002900000000000000000000000000000000 "
		},
		"gasEstimates": {
			"creation": {
				"codeDepositCost": "317200",
				"executionCost": "81617",
				"totalCost": "398817"
			},
			"external": {
				"getbyteaa()": "590",
				"getbytebb()": "596",
				"getbytecc()": "508",
				"getbytedd()": "627",
				"getintaa()": "479",
				"getintbb()": "661",
				"getintcc()": "573",
				"getintdd()": "551",
				"getintff()": "684"
			}
		},
		"methodIdentifiers": {
			"getbyteaa()": "e64d77c6",
			"getbytebb()": "7f38a19e",
			"getbytecc()": "06618605",
			"getbytedd()": "d333f46b",
			"getintaa()": "13a9ca12",
			"getintbb()": "e9c66ccf",
			"getintcc()": "5dd9d8a7",
			"getintdd()": "3b255757",
			"getintff()": "ff14b941"
		}
	},
	"abi": [
		{
			"constant": false,
			"inputs": [],
			"name": "getbytecc",
			"outputs": [
				{
					"name": "",
					"type": "bytes2"
				}
			],
			"payable": false,
			"stateMutability": "nonpayable",
			"type": "function"
		},
		{
			"constant": false,
			"inputs": [],
			"name": "getintaa",
			"outputs": [
				{
					"name": "",
					"type": "uint256"
				}
			],
			"payable": false,
			"stateMutability": "nonpayable",
			"type": "function"
		},
		{
			"constant": false,
			"inputs": [],
			"name": "getintdd",
			"outputs": [
				{
					"name": "",
					"type": "uint256"
				}
			],
			"payable": false,
			"stateMutability": "nonpayable",
			"type": "function"
		},
		{
			"constant": false,
			"inputs": [],
			"name": "getintcc",
			"outputs": [
				{
					"name": "",
					"type": "uint256"
				}
			],
			"payable": false,
			"stateMutability": "nonpayable",
			"type": "function"
		},
		{
			"constant": false,
			"inputs": [],
			"name": "getbytebb",
			"outputs": [
				{
					"name": "",
					"type": "bytes1"
				}
			],
			"payable": false,
			"stateMutability": "nonpayable",
			"type": "function"
		},
		{
			"constant": false,
			"inputs": [],
			"name": "getbytedd",
			"outputs": [
				{
					"name": "",
					"type": "bytes2"
				}
			],
			"payable": false,
			"stateMutability": "nonpayable",
			"type": "function"
		},
		{
			"constant": false,
			"inputs": [],
			"name": "getbyteaa",
			"outputs": [
				{
					"name": "",
					"type": "bytes1"
				}
			],
			"payable": false,
			"stateMutability": "nonpayable",
			"type": "function"
		},
		{
			"constant": false,
			"inputs": [],
			"name": "getintbb",
			"outputs": [
				{
					"name": "",
					"type": "uint256"
				}
			],
			"payable": false,
			"stateMutability": "nonpayable",
			"type": "function"
		},
		{
			"constant": false,
			"inputs": [],
			"name": "getintff",
			"outputs": [
				{
					"name": "",
					"type": "bytes1"
				}
			],
			"payable": false,
			"stateMutability": "nonpayable",
			"type": "function"
		}
	]
}